S010000074696D65723136622E737265632A
S11300000C942A000C943C000C943C000C943C008E
S11300100C943C000C943C000C943C000C945D004B
S11300200C943C000C943C000C943C000C943C005C
S11300300C943C000C943C000C943C000C943C004C
S11300400C943C000C943C000C943C000C943C003C
S11300500C943C0011241FBECFE5D8E0DEBFCDBF19
S113006020E0A0E6B0E001C01D92A236B207E1F79D
S11300700E943E000C9481000C9400000E944C00ED
S11300800E947D00FFCF019721F48EB588608EBD5C
S113009008958EB58EBD089581E090E00E944300DE
S11300A089B7806189BF8EE38BBD80E88ABD78946F
S11300B0109261001092600008951F920F920FB683
S11300C00F9211242F938F939F93809160009091AE
S11300D0610001969093610080936000883E934094
S11300E020F010926100109260009F918F912F91E7
S11300F00F900FBE0F901F9018958EB581608EBD26
S10901000895F894FFCFFE
S9030000FC
